:020000040800F2
:1000000000000220B97E0008497E00084B7E0008EF
:100010004D7E00084F7E0008517E00080000000061
:10002000000000000000000000000000F15A00087D
:10003000537E000800000000815B0008E55B0008BB
:10004000097F0008097F0008097F0008097F000870
:10005000097F0008097F0008097F0008097F000860
:10006000097F0008097F0008097F0008097F000850
:10007000097F0008097F0008097F0008097F000840
:10008000097F0008097F0008097F0008097F000830
:10009000097F0008097F0008097F0008097F000820
:1000A000097F0008097F0008097F0008097F000810
:1000B000097F0008097F0008097F0008557E0008B5
:1000C000097F0008097F0008097F0008097F0008F0
:1000D000097F0008097F0008097F0008097F0008E0
:1000E000097F0008097F0008097F0008097F0008D0
:1000F000097F0008097F0008097F0008097F0008C0
:10010000097F0008097F0008097F0008097F0008AF
:10011000097F0008097F0008617E0008097F000848
:10012000097F0008097F0008097F0008097F00088F
:10013000097F00080000000000000000097F00089F
:10014000097F0008097F0008097F0008097F00086F
:10015000097F0008097F0008097F0008097F00085F
:10016000097F0008097F0008097F0008097F00084F
:10017000097F0008097F0008097F000800000000CF
:1001800000000000097F00080000000000000000DF
:10019000097F00080000000000000000097F00083F
:1001A000000000000000000000000000097F0008BF
:1001B000097F0008097F0008097F0008097F0008FF
:0401C000097F0008AB
:1001D00010B5054C237833B9044B13B10448AFF381
:1001E00000800123237010BD1000002000000000DB
:1001F0007C7F000808B5034B1BB103490348AFF3EC
:10020000008008BD00000000140000207C7F000872
:1002100081F0004102E000BF83F0004330B54FEAB7
:1002200041044FEA430594EA050F08BF90EA020F24
:100230001FBF54EA000C55EA020C7FEA645C7FEAB7
:10024000655C00F0E2804FEA5454D4EB5555B8BFDA
:100250006D420CDD2C4480EA020281EA030382EA4B
:10026000000083EA010180EA020281EA0303362DDD
:1002700088BF30BD11F0004F4FEA01314FF4801CB0
:100280004CEA113102D0404261EB410113F0004FC2
:100290004FEA03334CEA133302D0524263EB430379
:1002A00094EA050F00F0A780A4F10104D5F1200E17
:1002B0000DDB02FA0EFC22FA05F2801841F1000172
:1002C00003FA0EF2801843FA05F359410EE0A5F146
:1002D00020050EF1200E012A03FA0EFC28BF4CF077
:1002E000020C43FA05F3C01851EBE37101F000452D
:1002F00007D54FF0000EDCF1000C7EEB00006EEB3A
:100300000101B1F5801F1BD3B1F5001F0CD34908C3
:100310005FEA30004FEA3C0C04F101044FEA44521A
:1003200012F5800F80F09A80BCF1004F08BF5FEAA1
:10033000500C50F1000041EB045141EA050130BD81
:100340005FEA4C0C404141EB010111F4801FA4F124
:100350000104E9D191F0000F04BF01460020B1FA79
:1003600081F308BF2033A3F10B03B3F120020CDAB1
:100370000C3208DD02F1140CC2F10C0201FA0CF08F
:1003800021FA02F10CE002F11402D8BFC2F1200CF4
:1003900001FA02F120FA0CFCDCBF41EA0C019040AA
:1003A000E41AA2BF01EB0451294330BD6FEA0404F3
:1003B0001F3C1CDA0C340EDC04F11404C4F12002DE
:1003C00020FA04F001FA02F340EA030021FA04F3F0
:1003D00045EA030130BDC4F10C04C4F1200220FA47
:1003E00002F001FA04F340EA0300294630BD21FA85
:1003F00004F0294630BD94F0000F83F4801306BF4B
:1004000081F480110134013D4EE77FEA645C18BF3E
:100410007FEA655C29D094EA050F08BF90EA020FD5
:1004200005D054EA000C04BF1946104630BD91EACD
:10043000030F1EBF0021002030BD5FEA545C05D1D0
:100440004000494128BF41F0004130BD14F580040F
:100450003CBF01F5801130BD01F0004545F0FE4183
:1004600041F470014FF0000030BD7FEA645C1ABFB8
:10047000194610467FEA655C1CBF0B46024650EAEF
:10048000013406BF52EA033591EA030F41F400211B
:1004900030BD00BF90F0000F04BF0021704730B5A1
:1004A0004FF4806404F132044FF000054FF0000176
:1004B00050E700BF90F0000F04BF0021704730B537
:1004C0004FF4806404F1320410F0004548BF40420C
:1004D0004FF000013EE700BF42004FEAE2014FEA61
:1004E00031014FEA02701FBF12F07F4393F07F4F3C
:1004F00081F06051704792F0000F14BF93F07F4F6E
:10050000704730B54FF4607401F0004521F00041B0
:1005100020E700BF50EA010208BF704730B54FF036
:1005200000050AE050EA010208BF704730B511F03B
:10053000004502D5404261EB41014FF4806404F173
:1005400032045FEA915C3FF4DCAE4FF003025FEAF5
:10055000DC0C18BF03325FEADC0C18BF033202EB7D
:10056000DC02C2F1200300FA03FC20FA02F001FAD7
:1005700003FE40EA0E0021FA02F11444C1E600BF76
:1005800070B54FF0FF0C4CF4E06C1CEA11541DBF29
:100590001CEA135594EA0C0F95EA0C0F00F0DEF8F4
:1005A0002C4481EA030621EA4C5123EA4C5350EAD9
:1005B000013518BF52EA033541F4801143F480132A
:1005C00038D0A0FB02CE4FF00005E1FB02E506F0BB
:1005D0000042E0FB03E54FF00006E1FB03569CF010
:1005E000000F18BF4EF0010EA4F1FF04B6F5007F16
:1005F00064F5407404D25FEA4E0E6D4146EB060688
:1006000042EAC62141EA55514FEAC52040EA5E5010
:100610004FEACE2EB4F1FD0C88BFBCF5E06F1ED8BA
:10062000BEF1004F08BF5FEA500E50F1000041EBF1
:10063000045170BD06F0004646EA010140EA02009E
:1006400081EA0301B4EB5C04C2BFD4EB0C0541EAC0
:10065000045170BD41F480114FF0000E013C00F3D5
:10066000AB8014F1360FDEBF002001F0004170BDF9
:10067000C4F10004203C35DA0C341BDC04F1140412
:10068000C4F1200500FA05F320FA04F001FA05F29E
:1006900040EA020001F0004221F0004110EBD3706B
:1006A00021FA04F642EB06015EEA430E08BF20EA97
:1006B000D37070BDC4F10C04C4F1200500FA04F33A
:1006C00020FA05F001FA04F240EA020001F00041CC
:1006D00010EBD37041F100015EEA430E08BF20EA3F
:1006E000D37070BDC4F1200500FA05F24EEA020E87
:1006F00020FA04F301FA05F243EA020321FA04F0B6
:1007000001F0004121FA04F220EA020000EBD3706C
:100710005EEA430E08BF20EAD37070BD94F0000F6C
:100720000FD101F00046400041EB010111F4801FA0
:1007300008BF013CF7D041EA060195F0000F18BF51
:10074000704703F00046520043EB030313F4801F8D
:1007500008BF013DF7D043EA0603704794EA0C0F47
:100760000CEA135518BF95EA0C0F0CD050EA41065D
:1007700018BF52EA4306D1D181EA030101F00041DA
:100780004FF0000070BD50EA410606BF1046194602
:1007900052EA430619D094EA0C0F02D150EA01360E
:1007A00013D195EA0C0F05D152EA03361CBF10464F
:1007B00019460AD181EA030101F0004141F0FE41EE
:1007C00041F470014FF0000070BD41F0FE4141F472
:1007D000780170BD70B54FF0FF0C4CF4E06C1CEA72
:1007E00011541DBF1CEA135594EA0C0F95EA0C0F27
:1007F00000F0A7F8A4EB050481EA030E52EA0335E2
:100800004FEA013100F088804FEA03334FF0805502
:1008100045EA131343EA12634FEA022245EA11152F
:1008200045EA10654FEA00260EF000419D4208BFE0
:10083000964244F1FD0404F5407402D25B084FEA8D
:100840003202B61A65EB03055B084FEA32024FF439
:1008500080104FF4002CB6EB020E75EB030E22BF96
:10086000B61A754640EA0C005B084FEA3202B6EB56
:10087000020E75EB030E22BFB61A754640EA5C0005
:100880005B084FEA3202B6EB020E75EB030E22BF95
:10089000B61A754640EA9C005B084FEA3202B6EB96
:1008A000020E75EB030E22BFB61A754640EADC0055
:1008B00055EA060E18D04FEA051545EA16754FEAB7
:1008C00006164FEAC30343EA52734FEAC2025FEAD5
:1008D0001C1CC0D111F4801F0BD141EA00014FF064
:1008E00000004FF0004CB6E711F4801F04BF014335
:1008F0000020B4F1FD0C88BFBCF5E06F3FF6AFAE51
:10090000B5EB030C04BFB6EB020C5FEA500C50F1E0
:10091000000041EB045170BD0EF0004E4EEA113163
:1009200014EB5C04C2BFD4EB0C0541EA045170BD6A
:1009300041F480114FF0000E013C90E645EA060EAE
:100940008DE60CEA135594EA0C0F08BF95EA0C0FDC
:100950003FF43BAF94EA0C0F0AD150EA01347FF424
:1009600034AF95EA0C0F7FF425AF104619462CE7FB
:1009700095EA0C0F06D152EA03353FF4FDAE10465E
:10098000194622E750EA410618BF52EA43067FF4AF
:10099000C5AE50EA41047FF40DAF52EA43057FF43F
:1009A000EBAE12E74FF0FF3C06E000BF4FF0010C4A
:1009B00002E000BF4FF0010C4DF804CD4FEA410CAE
:1009C0007FEA6C5C4FEA430C18BF7FEA6C5C1BD07B
:1009D00001B050EA410C0CBF52EA430C91EA030FFC
:1009E00002BF90EA020F0020704710F1000F91EA59
:1009F000030F58BF994208BF90422CBFD8176FEA27
:100A0000E37040F0010070474FEA410C7FEA6C5CF4
:100A100002D150EA013C07D14FEA430C7FEA6C5CFB
:100A2000D6D152EA033CD3D05DF8040B704700BF27
:100A30008446104662468C461946634600E000BF75
:100A400001B5FFF7B7FF002848BF10F1000F01BD47
:100A50004DF808EDFFF7F4FF0CBF012000205DF812
:100A600008FB00BF4DF808EDFFF7EAFF34BF012097
:100A700000205DF808FB00BF4DF808EDFFF7E0FF30
:100A800094BF012000205DF808FB00BF4DF808ED81
:100A9000FFF7CEFF94BF012000205DF808FB00BFE8
:100AA0004DF808EDFFF7C4FF34BF012000205DF8CA
:100AB00008FB00BF4FEA410212F5001215D211D512
:100AC0006FF47873B3EB625212D94FEAC12343F04B
:100AD000004343EA505311F0004F23FA02F018BFCD
:100AE000404270474FF00000704750EA013005D196
:100AF00011F0004008BF6FF0004070474FF0000059
:100B0000704700BF53B94AB9002908BF00281CBF6D
:100B10004FF0FF314FF0FF3000F07AB9ADF1080C23
:100B20006DE904CE00F006F8DDF804E0DDE902230B
:100B300004B070472DE9F0478C460D460446089EE8
:100B4000002B51D18A4217466DD9B2FA82FEBEF10E
:100B5000000F0BD0CEF1200C01FA0EF520FA0CFCA0
:100B600002FA0EF74CEA050C00FA0EF44FEA174AA7
:100B7000250CBCFBFAF81FFA87F90AFB18CC45EAEA
:100B80000C4508FB09F3AB420AD9ED1908F1FF3215
:100B900080F02381AB4240F22081A8F102083D445D
:100BA000ED1AA4B2B5FBFAF00AFB105544EA05446D
:100BB00000FB09F9A14509D9E41900F1FF3380F0E0
:100BC0000A81A14540F2078102383C44A4EB0904A4
:100BD00040EA08400021002E61D024FA0EF40023E0
:100BE00034607360BDE8F0878B4207D9002E54D083
:100BF000002186E821000846BDE8F087B3FA83F1BA
:100C0000002940F08E80AB4202D3824200F2FA808B
:100C1000841A65EB03050120AC46002E3FD086E820
:100C20001010BDE8F08712B90127B7FBF2F7B7FA49
:100C300087FEBEF1000F34D1EB1B3A0C1FFA87FC84
:100C40000121B3FBF2F8250C02FB183345EA0345FA
:100C50000CFB08F3AB4207D9ED1908F1FF3002D2C3
:100C6000AB4200F2D1808046ED1AA3B2B5FBF2F0A0
:100C700002FB105543EA05440CFB00FCA44507D9D0
:100C8000E41900F1FF3302D2A44500F2B8801846FF
:100C9000A4EB0C0440EA08409DE731463046BDE82D
:100CA000F087CEF1200405FA0EF307FA0EF720FACA
:100CB00004F83A0C25FA04F448EA0308B4FBF2F10C
:100CC0004FEA184502FB11441FFA87FC45EA044528
:100CD00001FB0CF3AB4200FA0EF409D9ED1901F156
:100CE000FF3080F08A80AB4240F2878002393D4479
:100CF000EB1A1FFA88F5B3FBF2F002FB103345EA5A
:100D0000034500FB0CF3AB4207D9ED1900F1FF38A6
:100D10006FD2AB426DD902383D44EB1A40EA014133
:100D20008FE7C1F1200722FA07F88B4005FA01F49A
:100D300048EA030320FA07FE4FEA134CFD404EEA4F
:100D4000040EB5FBFCF94FEA1E440CFB19551FFAC3
:100D500083F844EA054509FB08F4AC4202FA01F2C3
:100D600000FA01FA08D9ED1809F1FF3043D2AC427C
:100D700041D9A9F102091D442D1B1FFA8EFEB5FBB6
:100D8000FCF00CFB10554EEA054400FB08F8A045AA
:100D900007D9E41800F1FF3529D2A04527D9023838
:100DA0001C4440EA0940A4EB0804A0FB02894C451E
:100DB000C6464D4615D312D056B1BAEB0E0364EBBE
:100DC000050404FA07F7CB401F43CC40376074603A
:100DD0000021BDE8F0871846F8E69046E0E6C245F7
:100DE000EAD2B8EB020E69EB03050138E4E72846C6
:100DF000D7E7404691E78146BEE7014678E70238EB
:100E00003C4445E7084608E7A8F102083D442BE7C3
:100E1000704700BF08B50B4B1A6842F400721A60A5
:100E20001A6842F480621A601A6842F480721A608A
:100E3000032000F0ABF8002006F0CAFF06F070FEB9
:100E4000002008BD003C0240034A044B11681B7897
:100E50000B441360704700BFB43D00200000002029
:100E6000014B1868704700BFB43D002038B50446F8
:100E7000FFF7F6FF631C1CBF054B1B78054618BF28
:100E8000E418FFF7EDFF401B8442FAD838BD00BFDD
:100E90000000002038B5044600286ED090F82030BD
:100EA0000BB906F05FFE2268136823F0020313609B
:100EB000FFF7D6FF054623685A68910751D41A6890
:100EC00042F001021A60FFF7CBFF054623685A681B
:100ED000D20754D5227E012A1A680CBF42F0800244
:100EE00022F080021A60627E012A1A680CBF42F06A
:100EF000400222F040021A60A27E012A1A680CBF4A
:100F000042F0200222F020021A60E27E012A1A68D2
:100F10000CBF22F0100242F010021A60227F012A58
:100F20001A680CBF42F0080222F008021A60627FC1
:100F3000012A1A680CBF42F0040222F004021A606F
:100F4000E168A2680A4321690A4361690A4361684A
:100F500001390A43DA6100200123606284F82030FD
:100F600038BDFFF77DFF401B0A28A4D9636A43F40C
:100F700000336362052384F82030012038BDFFF779
:100F80006FFF401B0A28A1D9F0E70000074AD36889
:100F900023F4E0631B041B0C43F0BF63000243F423
:100FA000003300F4E0600343D360704700ED00E0DD
:100FB000174B30B5DC68C4F30224C4F10703251DC8
:100FC000042B28BF0423062D4FF0010505FA03F377
:100FD00003F1FF338CBF033C00241940A14005FA04
:100FE00004F4013C2240002842EA01024FEA0212C6
:100FF000AFBF00F1604000F00F00064BD2B2A5BFBA
:1010000000F56140D2B21A5480F8002330BD00BF11
:1010100000ED00E014ED00E04209012300F01F00A4
:1010200003FA00F0014B43F82200704700E100E0B2
:1010300070B590F83440012C36D0012480F834404B
:1010400090F83540866D012C4FF000054FF00204FA
:1010500028D180F8354004684565256825F4802549
:10106000256063608368402B0EBFA260A160E260D0
:10107000C26D08BFE1603F239340B360236843F033
:1010800016032360636943F080036361036C1BB143
:10109000236843F008032360236843F001032360BF
:1010A000002070BD80F83450022070BD90F83530BB
:1010B000022B03D08023436501207047026805237B
:1010C00080F83530136823F0010313600020704767
:1010D0002DE9F04F85B00B68DFF8A081654ADFF895
:1010E000A091019300234FF0010E019C0EFA03FE24
:1010F0000EEA0406B64540F0AA804C6824F01007BA
:10110000022F16D14FEAD30A00EB8A0A03F0070B2D
:10111000DAF820504FEA8B0B4FF00F0C0CFA0BFC57
:1011200025EA0C0C0D6905FA0BF545EA0C05CAF821
:1011300020504FEA430A0325D0F800B005FA0AF51B
:10114000ED4304F0030C0BEA050B0CFA0AFC013F1B
:101150004CEA0B0C012FC0F800C011D8876807EAD1
:10116000050BCF6807FA0AFC4CEA0B078760476853
:1011700027EA0E0EC4F300179F4047EA0E074760A8
:10118000C7683D408F6807FA0AF73D43C560E50030
:101190005DD54FF0000BCDF80CB0D8F84470364D4B
:1011A00047F48047C8F84470D8F8447007F4804783
:1011B0000397039F23F0030707F1804707F59C3748
:1011C00003F0030CD7F808A04FEA8C0C4FF00F0E79
:1011D0000EFA0CFEA8422AEA0E0E3FD005F58065F5
:1011E000A8423DD005F58065A8423BD005F5806555
:1011F000A84239D005F58065A84237D0484537D098
:1012000005F50065A84214BF0725062505FA0CF56B
:1012100045EA0E05BD601568F74314F4803F0CBF26
:101220003D4035431560556814F4003F0CBF3D4008
:1012300035435560956814F4801F0CBF3D4035431D
:101240009560D568A40254BF3D403543D560013355
:10125000102B7FF448AF05B0BDE8F08F5D46D5E7B1
:101260000125D3E70225D1E70325CFE70425CDE704
:101270000525CBE7003C0140000002400038024059
:10128000001402400AB1816170470904FBE702685B
:10129000536913F480630DD06FF4806353610423AA
:1012A000036420220023036380F83C3080F83D2053
:1012B00001207047184670472DE9F8430446174649
:1012C0009946C1F307488EB22568B8F1010F0CBFEB
:1012D0006B69AB6936EA030314BF0120002008B92B
:1012E000BDE8F8836B695A0512D52B6843F4007387
:1012F0002B606FF480636B6104232364202200233E
:10130000236384F83C3084F83D200120BDE8F88355
:101310007B1CD9D04FB900232022236384F83C30B2
:1013200084F83D200320BDE8F883FFF799FDA0EB8A
:1013300009008742C8D2EEE72DE9F843089E04462B
:1013400090461F46C1F307498DB22368B9F1010FDA
:101350000CBF5B699B6935EA03030CBF01230023C3
:10136000434502D00020BDE8F8837B1CEDD05FB977
:1013700000232022236384F83C3084F83D2003209E
:1013800084F83E30BDE8F883FFF76AFD801B874292
:10139000DBD2EDE770B504460D46164623685B695F
:1013A0001B0601D5002070BD2046FFF770FFA8B9CD
:1013B0006A1CF3D065B9236C43F020032364202218
:1013C0000023236384F83C3084F83D20032070BD63
:1013D000FFF746FD801B8542E0D2ECE7012070BD9F
:1013E0002DE9FF41154602680B9E9846136843F4A9
:1013F000807313600F4600960A9B00224FF0011184
:101400000446FFF799FF68B923680A9A1C4907F058
:10141000FE071F6120463346FFF74EFF30B1236CB5
:10142000042B18D0032004B0BDE8F081236803909A
:101430005A6903929B69039332460A99039B20469B
:10144000FFF7A8FF48B1236C042BEBD12268136887
:1014500043F4007313600120E5E7B8F1010F23683E
:1014600002D1EDB21D61DEE72A0A1A610A993246FD
:101470002046FFF78FFF0028E5D12368F1E700BF82
:10148000020001002DE9FF41984603680B9D1646B6
:101490001A6842F480621A601A6842F480721A6014
:1014A0000F4600950A9B00224FF001110446FFF7FA
:1014B00043FF80B923682F49FFB207F0FE021A618B
:1014C00020462B460A9AFFF7F7FE40B1236C042B07
:1014D00001D1012000E0032004B0BDE8F0812368C1
:1014E00003905A6903929B6903932A460A99039BC6
:1014F0002046FFF74FFF40B1236C042BEBD122684D
:10150000136843F400731360E3E7B8F1010F236835
:1015100024D1F6B21E612A460A992046FFF73AFF07
:1015200002460028E8D121680B6843F480730B6001
:10153000204600950A9B4FF00111FFF7FDFE0028A1
:10154000C9D123680A9A0B4947F001071F61204659
:101550002B46FFF7B1FE0028B8D1BDE7320A1A6169
:101560000A992A462046FFF715FF0028C4D12368B0
:10157000CFE700BF0200010070B504460D461646D5
:101580002068436913F0400301D0002070BD426918
:10159000D2060BD56FF0100242612022236484F83A
:1015A0003C302363012084F83D2070BD5DB9236C7D
:1015B00043F020032364202384F83D30002384F883
:1015C0003C30032070BDFFF74BFC801B8542D7D217
:1015D000EDE770B504460D46164623685B695B0768
:1015E00001D5002070BD2046FFF751FEA8B96A1C46
:1015F000F3D065B9236C43F0200323642022002339
:10160000236384F83C3084F83D20032070BDFFF74D
:1016100027FC801B8542E0D2ECE7012070BD000072
:1016200070B50446002862D090F83D3003F0FF0208
:101630001BB980F83C2006F0CBFA22682D4E2E4DC7
:10164000242384F83D30136823F00103136000F075
:1016500071FF63682268B0FBF5F5B34284BF4FF4B5
:1016600096716943556091BF691C4FF47A75B1FB5F
:10167000F5F10131B342116221D85B00B0FBF3F008
:10168000C0F30B03032B98BF0420216AE369D061E8
:101690000B431360E16823690B439360A16963699D
:1016A0000B43D360136843F0010313600020202331
:1016B000206484F83D30206384F83E0070BDA1684A
:1016C00049B903EB4303B0FBF3F0C0F30B0363B181
:1016D00040F40040D9E719214B43B0FBF3F0C0F3CD
:1016E0000B0313B140F44040CFE70120CDE70120C8
:1016F00070BD00BFA086010040420F002DE9F347F6
:1017000004469A46884691460C9EFFF7A9FB94F83A
:101710003D30202B054603D0022002B0BDE8F08703
:101720000090192301223E492046FFF705FE0028BC
:10173000F2D194F83C30012BEED0012384F83C30F8
:1017400023681A68D2075EBF1A6842F001021A6065
:101750001A6822F400621A60212384F83D30402385
:1017600084F83E300A9B63620027BDF82C30276462
:1017700063852C4BE362638D238501950096534668
:101780004A4641462046FFF72BFE00282AD0236C0C
:1017900084F83C70042B07D10120BEE7FFF7FAFD67
:1017A00020B1236C042B34D00320B6E7616A27688C
:1017B000228D4B1C63620B783B61638D013B9BB2B6
:1017C00063857B69501E80B25B0720850AD548B1CE
:1017D0008B1C63624B783B61638D013B023A9BB289
:1017E00022856385238D2A4631462046002BD5D19C
:1017F000FFF7EFFE0028D4D12268136843F400738A
:101800001360202384F83D3084F83C0084F83E00C7
:1018100083E72268136843F400731360BCE700BFDA
:10182000020010000000FFFF2DE9F047044686B0DB
:101830009A460D469146109FFFF712FB94F83D30F3
:10184000202B064604D00225284606B0BDE8F087C6
:1018500000901923012279492046FFF76DFD0028E9
:10186000F1D194F83C30012BEDD0012384F83C30C9
:1018700023681A68D2075EBF1A6842F001021A6034
:101880001A6822F400621A60222384F83D30402353
:1018900084F83E300E9B63624FF00008BDF83C3088
:1018A000C4F840806385664BE362638D23852946D7
:1018B0000196009753464A462046FFF7E3FD05464A
:1018C00030B1236C84F83C80042B3AD10125BBE76E
:1018D000228D236892B902905A6902929A69029203
:1018E000029A1A6842F400721A60202384F83D308C
:1018F000002384F83E3084F83C30A5E7012A22D149
:101900001A6822F480621A6003905A6903929A69F5
:101910000392039A1A6842F400721A60DFF8248175
:10192000238D002BE1D0032B6BD8012B23D1324622
:1019300039462046FFF720FE002839D0236C202BA3
:10194000C4D1032580E7022A0ED11A6822F48062EE
:101950001A601A6842F400621A6004905A6904928C
:101960009B690493049BD9E705905A6905929B698A
:101970000593059BD2E7022B00963B464FF00002F1
:101980004146204622D1FFF7D7FC0028D9D1236851
:101990001A6842F400721A60626A1B69511C616223
:1019A0001370238D013B2385638D013B9BB26385BF
:1019B000636A5A1C6262226812691A70238D013BA5
:1019C0002385638D013B9BB26385A9E7FFF7B4FCD8
:1019D00002460028B5D12368196821F48061196096
:1019E000616A1B69481C60620B70238D0096013B85
:1019F0002385638D013B9BB2638541463B46204670
:101A0000C1E7324639462046FFF7B6FD002895D19A
:101A1000636A5A1C6262226812691A70238D2268F6
:101A2000013B2385638D013B9BB2638553695B0753
:101A30007FF576AF636A591C6162BDE70200100052
:101A40000000FFFF040001002DE9F04F044685B0BF
:101A5000984689469246FFF703FA94F83D30202BCA
:101A6000064603D0022005B0BDE8F08F0090192390
:101A700001224A492046FFF75FFC0028F2D194F882
:101A80003C30012BEED0012384F83C302368DFF892
:101A90000CB11A68D2075EBF1A6842F001021A60E0
:101AA0001A6822F400621A60242384F83D3000256D
:101AB0003B4B256409F0FE09E3622268136843F496
:101AC000807313604FF001110096434600222046B8
:101AD000FFF732FC08B10320C5E72368C3F8109074
:101AE000FFF7BEF9236859695A6994F83D300646F4
:101AF000C1F34001C2F38022DBB2A02711B90AB9B9
:101B0000A02B20D12368202784F83D705A6912F059
:101B1000020F1A6842F400721A602AD0002203925F
:101B20005A6903929B690393039B00961923012230
:101B30001A492046FFF700FC0028CCD184F83D70FC
:101B400084F83C008FE7B8F1000F0CD184F83D70A9
:101B5000236859695A6994F83D30C1F34001C2F3D2
:101B60008022DBB2CAE7FFF77BF9801B8045EDD30B
:101B7000EEE76FF480625A615946009619230122FC
:101B80002046FFF7D9FB0028A5D10135AA4594D8F6
:101B900084F83C0084F83D70012064E702001000E6
:101BA0000000FFFF704770477047704770477047ED
:101BB000704770477047704790F83D30293B012BC4
:101BC00010B50368044639D800220263282280F841
:101BD0003D201A6822F400621A605A6812F400620A
:101BE00054D05A68606B22F400625A6090F8353025
:101BF000012B394B31D00365FFF758FA50B12268F9
:101C0000606B136823F001031360202384F83D30D8
:101C1000036D984794F83D30282B0ED1236C5B0759
:101C20000BD52E4BE362202200232363204684F849
:101C30003D2084F83E30FFF7BAFF10BD90F83D20FC
:101C4000602A05D05A6812055CBF202280F83D202A
:101C50000022226384F83E20BBE7A06B0365FFF7F8
:101C600025FA0028D6D022685369580604D5636A3D
:101C70001269591C61621A702268A06B136823F004
:101C800001031360202384F83D30C1E794F83D1030
:101C9000602914D1202184F83D1022645A6951062C
:101CA00004D5626A1B69511C616213702268136853
:101CB00023F0010313602046FFF77DFFAAE75A696E
:101CC000520604D5626A1B69511C6162137020467A
:101CD000FFF770FF9EE700BFB52300080000FFFF7D
:101CE0000368F0B59D6959695A6890F83E40E4B2BE
:101CF000102C8DB002D0402C40F0558211F0011F05
:101D000066D0970564D590F83E40402C43D1046DD1
:101D1000002C3BD1446C04F0FE041C61984E994C9D
:101D20002E400C40002E00F09F81974D0D40002D5D
:101D300000F06681550540F16381002C40F0608120
:101D400090F83D20058D90F83E10C46AD2B2C9B219
:101D5000002D40F00581212A40F00481042C00F080
:101D60006C81082C00F0698114F5803F00F06581DA
:101D70005A6822F4E0625A601123036380F83E50EF
:101D8000202380F83D30FFF70DFFF6E0446C44F06F
:101D90000104E4B2C1E70469B4F5804F05D190F8BD
:101DA0003D40212C446CF2D1B5E7046D34B9446C4C
:101DB000E41104F0060444F0F004AEE7046D012CD5
:101DC000ACD1446CE41104F0060444F0F104A4E73F
:101DD0006E4C0C401CB1960501D5446CD9E76C4C97
:101DE0000C40002C9AD0940598D590F83E40C66AD5
:101DF000D0F830E090F83D70222FE4B240F0A88097
:101E0000076D47B9402C06D101975C6901949C6924
:101E10000194019C82E7046D8CB90769B7F5404FC6
:101E20000DD102945C6902949C690294029C1C6826
:101E300044F480741C60046D013404656EE7448DC5
:101E4000A4B254B903945C6903949C690394039C01
:101E50001C6844F400741C6019E0448DA4B2012C89
:101E600042D116F5803F1BD11C6824F480641C60AD
:101E70005C6814F400640CD01C6824F480641C605A
:101E8000002404945C6904949C690494049C0024D8
:101E9000D3E705945C6905949C690594059CD7E794
:101EA000042E15D0082E13D0BEF1120F10D0C46A24
:101EB000022C1C6814BF24F4806444F480641C6009
:101EC000002406945C6906949C690694069CDEE7EF
:101ED0001C6824F480641C60002407945C690794E7
:101EE0009C690794079CB3E7448DA4B2022C1CD1D3
:101EF000C46A022C1C681DBF24F480641C601C682A
:101F000044F4806418BF44F400641C605C682705D6
:101F100042BF5C6844F480545C60002408945C69AF
:101F200008949C690894089CB1E71C6844F4806498
:101F30001C605C68260542BF5C6844F480545C60A9
:101F4000002409945C6909949C690994099C9EE7A2
:101F500000240A945C690A949C690A940A9CDDE650
:101F6000212A03D0402908D1222A06D1428D92B2DB
:101F700082B95A6822F480625A600DB0F0BD00BF89
:101F800004001000040001008000010008000100AE
:101F90000200010090F83E20402A27D1026D7AB954
:101FA000C26C012A826C05D1D2B21A61036D023370
:101FB0000365E2E7C2F307221A61036D0133F7E715
:101FC000026D012A02D1826CD2B2F5E7026D022ABB
:101FD000D3D190F83D20222A04D11A6842F48072AD
:101FE0001A60CAE790F83D20212AC6D1426A511CE6
:101FF000416212781A61438D013B9BB24385BCE775
:10200000002CBAD09405B8D5C16A90F83D20212A99
:10201000B3D1428D92B2002AE8D104290DD008290B
:102020000BD011F5803F08D0596821F4E061596068
:102030001123036380F83E20A2E65A6822F4E0628E
:102040005A601A6842F400721A6000232022036367
:1020500080F83D2090F83E2080F83E30402A7FF402
:1020600092AEFFF7A5FD88E7904D0D40002D41D0C1
:1020700051053FD5002C3DD190F83D20222A7FF418
:102080007CAF428D92B2032A13D9426A1B69511C5C
:1020900041621370438D013B9BB24385438D9BB2DC
:1020A000032B7FF46AAF0268536823F480635360A4
:1020B00063E7012A3FF661AF1A6822F480621A6072
:1020C0005A6822F4E0625A60426A1B69511C4162FC
:1020D0001370438D013B9BB24385202380F83D3034
:1020E000046390F83E3080F83E40402B58D1FFF713
:1020F00060FD42E7002C3FF440AF97057FF53DAF10
:10210000C16A428D92B2042A426A08D1596821F408
:1021100080615960511C1B69416213706BE7448DEB
:10212000A4B2032C08D1596821F480615960196860
:1021300021F480611960EDE7448DA4B2022CE9D14D
:102140000139012919689DBF21F48061196019685E
:1021500041F4007198BF41F4807119601B69511CF2
:1021600041621370438D013B9BB24385436A5A1C05
:102170004262026812691A70438D0268013B9BB289
:102180004385536823F440735360202380F83D3027
:102190000023036390F83E2080F83E30402AA5E7F4
:1021A000FFF701FDE9E6424C0C4074B196050CD5F1
:1021B00099699B6981F004011D06C1F3800154BF38
:1021C0008289028BFFF7F2FCD7E63A4C0C40002CD8
:1021D00074D0940572D590F83D20596821F4E061DF
:1021E000596000210B9159690B91196841F0010167
:1021F00019600B99196821F4806119605968090503
:10220000D2B20CD590F83D10222903D090F83D10A1
:102210002A2929D1816B0968496889B24185418D94
:1022200089B2E1B159694F0708D5416A1B694C1C55
:1022300044620B70438D013B9BB2438501684B693F
:102240005E0608D5436A09695C1C44621970438DB7
:10225000013B9BB24385036C43F004030364036CAE
:1022600023B1FFF7A9FC88E6416BD4E7A2F128016E
:1022700002290AD8104AC2622022036380F83D2056
:1022800080F83E30FFF793FC77E6036B222B02D0F9
:10229000222A7FF472AE00232022036380F83D20BF
:1022A00080F83E30FFF781FC67E600BF4000010088
:1022B00002000100100001000000FFFF394E3A4CFF
:1022C0002E400C40002E36D0384D0D403DB3550504
:1022D00025D524BB90F83D10428D92B2C9B2002A98
:1022E0003FF44BAE426A541C446212781A61428D2C
:1022F000013A92B24285428D92B2002A7FF43DAEFD
:1023000029297FF43AAE5A6822F480625A60212368
:102310000363282380F83D30FFF746FC2DE6002CB0
:102320003FF42BAE94057FF528AE428D92B2002A81
:102330007FF45CAE21E61E4D0D4035B3510524D52A
:102340001CBB90F83D20418D89B2D2B200293FF4E8
:1023500014AE416A1B694C1C44620B70438D013BF7
:102360009BB24385438D9BB2002B7FF406AE2A2A95
:102370007FF403AE0268536823F480635360222322
:102380000363282380F83D308CE7002C3FF4F5AD43
:1023900092057FF5F2AD428D92B2002A3FF4EDAD89
:1023A000426AB7E60400100004000100800001004A
:1023B00040000100806B08B50368416B1A6822F485
:1023C00080621A60002242850A65816B0A6590F876
:1023D0003D1060294FF0200180F83D1080F83E202C
:1023E00007D102641A6822F001021A60FFF7E3FBCA
:1023F00008BD1A6822F001021A60FFF7DBFB08BD76
:102400002DE9F0410D46044610B90120BDE8F081E8
:10241000444B1A6802F00F028A4228D321688F07C2
:102420002DD4C80740D43F4B1A6802F00F029542E2
:1024300066D3226851076CD4130707D53A4A21693D
:10244000936823F4604343EAC103936000F0A8FA61
:10245000354B364A9B68C3F30313D35CD840344BE7
:102460001860002005F0B4FC0020BDE8F081CAB27D
:102470001A701B6803F00F039942C6D1CEE72A4BAE
:1024800011F0040F1EBF9A6842F4E0529A600E07E2
:1024900042BF9A6842F460429A609A68A06822F04B
:1024A000F00202439A60BCE762681F4B012A1DD10B
:1024B0001B6813F4003FA8D01B4EB36823F003033E
:1024C0001343B360FEF7CCFC41F288380746B3688B
:1024D000626803F00C03B3EB820FA4D0FEF7C0FCDC
:1024E000C01B4045F3D90320BDE8F081911E0129AE
:1024F0001B6802D813F0007FDDE713F0020FDAE764
:10250000EAB21A701B6803F00F039D427FF47DAF9F
:102510008FE70549E0688B6823F4E05303438B6041
:102520008AE700BF003C024000380240CC8000082F
:102530000C000020044B054A9B68C3F38223D35C44
:10254000034A1068D840704700380240DC80000819
:102550000C0000200F2303600B4B9A6802F003026B
:1025600042609A6802F0F00282609A6802F4E052D7
:10257000C2609B68DB0803F4E0530361034B1B68F4
:1025800003F00F030B60704700380240003C02402C
:1025900003682DE9F74313F0010604460BD0AA495E
:1025A000866BD1F88C2022F0C0623243B6FA86F6F0
:1025B000C1F88C2076099D070BD5A348E16BD0F8B4
:1025C0008C2022F0C0520A430029C0F88C2008BF9A
:1025D000012613F0040512D09B49256BD1F88C20FD
:1025E000B5F5801F22F4401242EA050218BFB5FA81
:1025F00085F5C1F88C2012BF6D090025012618074A
:102600000FD59148616BD0F88C2022F440020A4328
:10261000B1F5800FC0F88C2000F00981002908BFB7
:102620000125990633D500230193874B874F1A6CF8
:1026300042F080521A641B6C03F080530193019B9B
:102640003B6843F480733B60FEF70AFC80463B68BE
:10265000DA0540F1EE807C4F3B6F13F4407340F09D
:10266000FB80236C03F44072B2F5407F764A40F061
:102670001681916823F0704021F4F81120F4407025
:1026800001439160116FC3F30B030B43136723687E
:10269000D90642BF6E4B94F858201A6023681A0678
:1026A00008D56949E06CD1F8942022F44002024335
:1026B000C1F894205F0608D56349A06CD1F8942036
:1026C00022F080620243C1F89420D8050CD55E4800
:1026D000616DD0F8942022F000620A43B1F1006FDE
:1026E000C0F8942008BF0125990508D55649606CAB
:1026F000D1F8942022F080520243C1F894205A0568
:1027000000F1D180012E40F0DC80524E4E4F00236C
:102710003360FEF7A5FB80463B681B0100F1258175
:102720002268D00701D5A36B1BB1910715D5E36BC8
:102730009BB94549D1F88430D1F8840003F4403383
:1027400000F07060034360680343A06843EA8013AD
:10275000606943EA0073C1F88430530703D5236BE3
:10276000B3F5801F05D0170720D5636BB3F5800F35
:102770001CD13549D1F88430D1F8840003F44033BA
:1027800000F0E040034360680343A06843EA80131D
:10279000206943EA0063C1F88430D1F88C00A36A51
:1027A00020F01F00013B0343C1F88C3050051BD5BE
:1027B000236DB3F1005F17D123486768D0F8841008
:1027C000D0F8843003F0E0433B43A768C1F30141F4
:1027D000013143EA871343EA4163E168490801395B
:1027E00043EA0143C0F88430110511D52369A2687A
:1027F0001B0643EA821362681343626943EA027369
:10280000E2685208013A43EA02430F4AC2F88430B0
:1028100001233360FEF724FB0B4E074633681A0191
:1028200053D4FEF71DFBC01B0228F7D908E0012690
:10283000F7E6FEF715FBA0EB080002287FF607AFCE
:10284000032003B0BDE8F083003802400070004070
:10285000E011474268004742226C02F44072934202
:102860003FF4FFAE3B6F4B4A0121116023F44073EC
:10287000002111603B673B6FDB077FF5F2AEFEF78F
:10288000EFFA41F2883980463B6F98073FF5E9AE91
:10289000FEF7E6FAA0EB08004845F5D9D0E79168C5
:1028A00021F4F811EDE63C48216DD0F8942022F097
:1028B00000520A43B1F1005FC0F894207FF422AFC8
:1028C00023E7B3F5006F3FF420AF012D4BD1334D1B
:1028D000314E00232B60FEF7C3FA074633689B0096
:1028E0004BD421684E0701D5236B1BB108071AD5BD
:1028F000636BC3B9284AA069D2F8883003F4403327
:102900000343E06943EA8013606A43EA0063C2F864
:102910008830D2F88C30E06A23F4F853013843EA67
:102920000023C2F88C30CA0514D5636DB3F1006F73
:1029300010D11949A269D1F8883003F070631343AC
:10294000E26943EA8213226A5208013A43EA0243E7
:10295000C1F8883001232B60FEF782FA0E4C054641
:1029600023689B000FD500206BE7FEF779FAA0EBF8
:10297000080002287FF6D0AE62E7FEF771FAC01BAE
:102980000228ABD95CE7FEF76BFA401B0228E7D9B7
:1029900056E700BF400E47420038024070004742F1
:1029A000204908B58B6803F00C03082B07D00C2BCB
:1029B00020D01D4A1D48042B18BF104608BD4A6888
:1029C0004B68496813F4800314BF18481648C1F3D4
:1029D000881118BF002302F03F02A1FB0001FEF79F
:1029E00091F8104B5B68C3F3014301335B00B0FB0C
:1029F000F3F008BD4A684B68496813F4800314BFBC
:102A00000A480948C1F3881118BF002302F03F02A9
:102A1000A1FB0001FEF776F8024B5B68C3F302737B
:102A2000E5E700BF003802400024F40040787D0153
:102A300003682DE9F341DF07044610D423689E079D
:102A400067D423681A0700F1B28023685B0700F19E
:102A5000D080A269002A40F0398100201EE0974B07
:102A60009A6802F00C02042A10D09A6802F00C0254
:102A7000082A02D15B685D0208D4904B9A6802F084
:102A80000C020C2A0DD15A6850020AD58B4B1B68D8
:102A90009903D3D56368002BD0D1012002B0BDE8E3
:102AA000F0816268B2F5803F11D11A6842F4803239
:102AB0001A60FEF7D5F9814D06462B689A03BDD4FE
:102AC000FEF7CEF9801B6428F7D90320E6E77B4D9B
:102AD000B2F5A02F2B6807D143F480232B602B681D
:102AE00043F480332B60E4E723F480332B602B68BE
:102AF00023F480232B60002ADBD1FEF7B1F90646D0
:102B00002B689B039AD5FEF7ABF9801B6428F7D995
:102B1000DBE76A4B9A6812F00C0F10D09A6802F04B
:102B20000C02082A02D15B685F0208D5634A9368E9
:102B300003F00C030C2B11D153685E020ED45F4BD3
:102B40001A68950702D5E268012AA6D11A68216998
:102B500022F0F80242EAC1021A6072E7E268584BBA
:102B6000B2B101221A60FEF77BF9544D06462B687C
:102B7000980707D52B68226923F0F80343EAC203BC
:102B80002B605EE7FEF76CF9801B0228EFD99CE70B
:102B90001A60FEF765F9494D06462B6899077FF5DF
:102BA00050AFFEF75DF9801B0228F6D98DE7626908
:102BB000444B7AB101221A60FEF752F93F4D0646A6
:102BC0006B6F9F073FF541AFFEF74AF9801B022864
:102BD000F6D97AE71A60FEF743F9384D06466B6F6F
:102BE00098077FF532AFFEF73BF9801B0228F6D934
:102BF0006BE7324B1A6C12F0805228D101921A6C9A
:102C000042F080521A641B6C03F080530193019BC5
:102C100001262D4D2B68D9051BD5A368274D012B07
:102C200027D12B6F43F001032B67FEF719F9234DD2
:102C3000074641F288382B6F9B0739D5002E3FF4A9
:102C400008AF1E4A136C23F08053136401E700267B
:102C5000DFE72B6843F480732B60FEF701F907462A
:102C60002B68DA05D9D4FEF7FBF8C01B0228F7D988
:102C70002BE7052B04D12B6F43F004032B67D0E720
:102C80002A6F22F001022A672A6F22F004022A67C3
:102C9000002BCAD1FEF7E4F841F2883807462B6FC3
:102CA0009807CBD5FEF7DCF8C01B4045F7D90CE7F9
:102CB000FEF7D6F8C01B4045BDD906E700380240F4
:102CC00000004742800E474200700040234DAB6831
:102CD00003F00C03082B3FF4E0AE214E0023022A40
:102CE00033602DD1FEF7BCF807462B68990121D43B
:102CF000226AE3691343626A43EA8213E26A43EA9F
:102D00000263226B43EA0273A26A144C5208013A2E
:102D100043EA02436B6001233360FEF7A1F80546E6
:102D200023689A013FF599AEFEF79AF8401B0228F6
:102D3000F6D9CAE6FEF794F8C01B0228D5D9C4E636
:102D4000FEF78EF804462B689B017FF586AEFEF7F2
:102D500087F8001B0228F6D9B7E600BF003802400A
:102D600060004742026838B5D36823F0A003D360FF
:102D70000446FEF775F805462368DB689B0601D517
:102D8000002038BDFEF76CF8401BB0F57A7FF3D910
:102D9000032038BD38B50368DA685206044601D509
:102DA000002038BD4FF0FF32DA60FEF759F80546D3
:102DB0002368DB685B06F3D4FEF752F8401BB0F5DE
:102DC0007A7FF5D9032038BD38B50446B8B1437FC2
:102DD00003F0FF0213B9027704F086FF0223637742
:102DE0002368CA225A6253225A622046FFF7D2FF52
:102DF0002368054628B1FF225A6204236377012520
:102E00002EE09A68206922F4E00222F040029A60E3
:102E1000626899680243606902430A439A60E26803
:102E20001A611A69A16842EA01421A61DA6822F05D
:102E30008002DA609B689B0605D42046FFF792FF6C
:102E400008B12368D7E72368A1691A6C22F48022AD
:102E50001A641A6C0A431A64FF225A6201236377C8
:102E6000284638BD0023092803D840EA0310C0B221
:102E700070470A380133C0B2F5E7F8B5037F012B7C
:102E800005464FF0020630D00123037746774B7892
:102E9000C8788E780C78002A48D1DA0603D523F05A
:102EA00010030A334B70FFF7DDFF07464878FFF742
:102EB000D9FF02463046FFF7D5FF40EA443040EAEA
:102EC000074040EA02242B68CA225A6253225A62FF
:102ED0002846FFF75FFF2B68064640B1FF225A6283
:102EE00004236B7700232B7701263046F8BD24F0AE
:102EF0007F4424F0C0045C60DA6822F08002DA606B
:102F00009B689B060AD42846FFF72CFF30B12B683C
:102F1000FF225A6204236B772E77E5E72B68FF22A6
:102F20005A6201236B7700232B77DEE71B0243EA0B
:102F30000040304340EA4434C5E7F8B5037F012B35
:102F400006460F464FF002052FD001230377036892
:102F5000457708784D788C789B6842BB13F0400326
:102F600008BFCB70FFF77EFF01462846FFF77AFFC8
:102F700002462046FFF776FFFB7840EA034040EA2E
:102F8000014040EA02243368CA225A6253225A623C
:102F90003046FFF7FFFE33680546A8B1FF225A62AC
:102FA000042373770023337701252846F8BD13F0F7
:102FB00040034FEA052508BFCB7045EA0040204397
:102FC000CC7840EA0444DEE704F07F3424F0FE4489
:102FD0001C609A68386922F480229A60FA689968BD
:102FE00002430A439A60DA6822F08002DA609B6842
:102FF0009B060AD43046FFF7B5FE30B13368FF2296
:103000005A62042373773577CEE73368FF225A621A
:103010000123737700233377C7E7030903EB8303A7
:1030200000F00F0000EB4300C0B270470368986ADD
:10303000486070B518691D6805F07F3323F0FE43C2
:10304000C0F30E001E0C8860C3F3062406F03F0098
:1030500005F07F0506F0400608704C708D70CE704C
:1030600052B9FFF7DAFF08702046FFF7D6FF487025
:103070002846FFF7D2FF8870002070BD38B503687E
:103080005C6824F07F4323F0C003180CC3F30425CD
:1030900004F03F04C3F34233C8704D708C700B7062
:1030A00052B9FFF7BAFFC8702846FFF7B6FF48705D
:1030B0002046FFF7B2FF8870002038BD037F012B48
:1030C0004FF0020316D043770368CA225A62532294
:1030D0005A629A6822F400229A609A6811439960B1
:1030E0009A6842F400029A60FF225A6201234377F1
:1030F0000023037718467047836B1A68D36B43F439
:103100008073D363704700002DE9F043164687B003
:10311000054698460A4639B9836B43F00063AB63B2
:10312000012007B0BDE8F08390F83400C4B2012C50
:1031300068D1EF6D06EB08000023B842AB6303D9FA
:10314000AB6B43F00073EAE72F68032185F8341076
:10315000FB62F86B2C4940F49570F863E86B4FEA1A
:103160004829C1632949C164036507F180014FEA19
:103170009903FDF75DFF264B28681C606B6C012BE3
:103180004FF0FF338DE808024FF0900302934FF0A9
:103190000203039369464FF000034FF0010418BF88
:1031A00076020493059400F055FD4FF400712868F1
:1031B00000F063FD48B12B6840F2FF529A63AB6B9D
:1031C0001843A86385F83440AAE7B8F1010F12D973
:1031D00082232B633146286800F07FFD0028A0D0B1
:1031E0002B6840F2FF529A63AB6B1843A86301202F
:1031F00085F8340095E781232B633146286800F079
:1032000054FDEBE702208CE7173300086D37000808
:103210008C8525422DE9F041044686B015461E46B0
:103220000F4639B9836B43F000638363012006B016
:10323000BDE8F08190F83400C0B2012862D1E16DA0
:10324000EB1800228B42A26304D9A36B43F00073F6
:10325000A363ECE720682C49032384F83430C2626E
:10326000C36B43F01A03C363236CD9632749D96442
:103270001A65636C4FF40071012B18BF6D0200F0EA
:10328000FCFC50B1236840F2FF529A63A36B1843D1
:10329000A063012084F83400C9E7012E0FD9A023D0
:1032A00023632946206800F048FD0546226868B17E
:1032B00040F2FF539363A06B0543A563E9E79023B6
:1032C00023632946206800F020FDEEE7104B206CB8
:1032D0004FF001087602C3F800808032B308394607
:1032E000FDF7A6FE4FF0FF338DE8480069469023B6
:1032F0002068029303950495CDF8148000F0AAFC91
:10330000284694E7022092E7F93000086D3700085C
:103310008C852542704710B5846B236B822B09D1B5
:10332000206800F023FD28B1A36B1843A06320465A
:10333000FFF7F0FF2368DA6A22F00802DA6240F24F
:10334000FF529A63012384F83430204604F0AEF92A
:1033500010BD436E9A0F0A70C3F383624A70C3F3C1
:1033600001628A70C3F30742CA70C3F30722DBB25B
:103370000A714B71836E1A0E1201CA80CA8830B569
:1033800092B2C3F303542243CA80C3F303420A72C6
:10339000C3F30722D4094C72C2F380148C72C2F3B7
:1033A0004014CC72C2F300140C7300244C73446CB0
:1033B000002C40F08380920202F440620A610A69A4
:1033C0009B0003F47F7313430B61C26E0B6943EAE6
:1033D00092730B61C2F3C2630B75C2F302634B7548
:1033E000C2F342538B75C2F38243CB75D30B03F008
:1033F00006030B760C7EC2F30723C2F3C0322243CE
:103400000A760A690C7E01320234A24042650D7AC6
:103410000124AC408465640A6243C2654FF40072C3
:103420000266C3F380125B0003F07E034A768B765C
:10343000C36E8A7EC3F3C014224303F07F038A76EF
:10344000CB76036FDA0F0A77C3F341724A77C3F37F
:1034500082628A779A0D02F00C02CA77CA7FC3F3A0
:1034600081500243CA77C3F3405281F820200020E4
:10347000C3F3004281F8210081F82220C3F3C03257
:1034800081F82320C3F3803281F82420C3F3403233
:1034900081F82520C3F3003281F82620C3F381226E
:1034A00081F82720C3F30122C3F3460381F82820C3
:1034B00081F82930012381F82A3030BD012C1AD13E
:1034C0001B0403F47C130B61C36E0A691C0E42EAF1
:1034D00004220A610C69C3F3074222430A610A69A4
:1034E000920202F580624265C2654FF40072C3F336
:1034F0000723826594E7036840F2FF529A63836B67
:1035000043F080538363012380F83430184630BD84
:10351000F0B599B0002576230C930A950B950AAB6C
:10352000044693E807008DE807006F4E079508955D
:10353000099507AB0ECB206800F0BAFA0127356079
:10354000206800F0D1FA37600220FDF78FFC206878
:10355000069500F03DFC064668B9206800F060FC66
:1035600080B3A6644FF6FF75069B5A1CAB420692C9
:1035700008D14FF08076012084F83400A16B0E430F
:10358000A66381E00021206800F082FC014610B1B2
:103590004FF08056EFE7206800F092FC01460028CB
:1035A000F6D1206800F0BBFA0028DDDA002363645E
:1035B00020680123ADF8163000F09AFA10BB4FF0E6
:1035C00080656BE0A7644FF6FF75069B5A1CAB4203
:1035D0000692CED00021206800F05AFC0646002852
:1035E000C9D14FF08041206800F06AFC06460028EF
:1035F000C1D10146206800F092FAC30FE5D0420025
:10360000D4D5D4E7636C032B1AD0206800F071FC8A
:103610000546002842D10146206800F080FA0421C6
:103620006067206800F07BFA0821A067206800F03E
:1036300076FA0C21E067206800F071FAC4F8800087
:10364000636C032B22D1636C032B2ED104212068E1
:1036500000F065FA000DE0640DA92046FFF779FE41
:10366000226D20681204002300F09AFB0546A8B9D9
:1036700004F1100393E807008DE80700231D0ECB2B
:10368000206800F015FA284619B0F0BD0DF11601BA
:10369000206800F059FC05460028D4D0012084F8A9
:1036A0003400A36B1D43A563EEE7BDF8161021653A
:1036B0002068090400F032FC05460028EED10146DE
:1036C000206800F02CFA04216066206800F027FAD8
:1036D0000821A066206800F022FA0C21E06620682C
:1036E00000F01DFA2067B1E7A080254210B504461E
:1036F000A0B190F8343003F0FF0213B9027704F060
:10370000FFFA032384F834302046FFF701FF00203E
:103710000123A063206384F8343010BD012010BD64
:10372000436C0B60836C4B60C36C8B60036DCB6030
:10373000436D0B61836D4B61C36D8B61036ECB6118
:1037400000207047016D10B509040446006800F0C0
:103750004FFC014628B9206800F0E1F9C0F343208E
:1037600010BDA36B1943A1630020F7E710B5846B6C
:10377000E36B5B6D012B03D0236C5B6D012B1BD1C5
:10378000236840F2FF529A63DA6B22F49D72DA6387
:10379000A36B43F08043A3632046FFF7D3FF0538B4
:1037A000C0B2012805D8206800F0E0FAA36B1843E6
:1037B000A063012384F834302046FFF7ABFD10BD31
:1037C00070470368DA6842F00102DA601A6842F072
:1037D00001021A60002070477047704770477047B9
:1037E00003681A69910710B504460ED5DA68920786
:1037F0000BD56FF002021A619B6901229B070276CA
:1038000077D0FFF7EAFF0023237623681A69500771
:1038100010D5DA6851070DD56FF004021A619B6963
:10382000022213F4407F2276204668D0FFF7D5FFAE
:103830000023237623681A6912070FD5DA68100768
:103840000CD56FF008021A61DB6904229907227611
:1038500020465AD0FFF7C1FF0023237623681A6958
:10386000D20610D5DA68D0060DD56FF010021A61B5
:10387000DB69082213F4407F227620464BD0FFF705
:10388000ACFF0023237623681A69D10708D5DA68CC
:10389000D20705D56FF001021A61204604F07CF8CA
:1038A00023681A69100608D5DA68110605D56FF085
:1038B00080021A61204600F0B4F823681A695206A3
:1038C00008D5DA68500605D56FF040021A61204627
:1038D000FFF785FF23681A69910622D5DA689206F8
:1038E0001FD56FF0200220461A61BDE8104000F09D
:1038F00097B8FFF771FF2046FFF770FF83E7FFF7E8
:103900006BFF2046FFF76AFF92E7FFF765FF20464F
:10391000FFF764FFA0E7FFF75FFF2046FFF75EFFBA
:10392000AFE710BD2E4A0368904212D0B0F1804F2D
:103930000FD0A2F57C4290420BD002F580629042FB
:1039400007D002F58062904203D002F5784290429F
:103950001DD14A6823F070031343214A904204D1D9
:10396000CA6823F44073134328E0B0F1804FF7D0C6
:103970001C4A9042F4D002F580629042F0D002F5E9
:1039800080629042ECD002F578429042E8D0164A2C
:103990009042E5D002F580629042E1D002F580626B
:1039A0009042DDD0A2F598329042D9D002F58062E3
:1039B0009042D5D002F580629042D1D003608B68EE
:1039C000C3620B688362064B984206D003F580639E
:1039D000984202D00123436170470B690363F9E702
:1039E00000000140000400400040014010B50446C2
:1039F000A0B190F8393003F0FF021BB980F83820ED
:103A0000FFF7DEFE022384F839302068211DFFF71E
:103A100089FF012384F83930002010BD012010BD3A
:103A200070477047114B4FF4FA521B68B3FBF2F228
:103A300041F28833534313F1FF3314D3426B12F036
:103A4000450FF8D0436B5B0703D504238363184607
:103A50007047436B13F0010301D00123F6E740F2F6
:103A6000FF528263F3E74FF00043F0E70C000020C1
:103A70000E4B4FF4FA521B68B3FBF2F241F288335B
:103A8000534313F1FF330ED3426B12F0450FF8D0BE
:103A9000436B13F0040315BF042340F2FF5283630A
:103AA0008263184670474FF0004070470C000020BA
:103AB00084B010B503AC84E80E000499039B4268FF
:103AC0000B4305990B4306990B4307990B43089940
:103AD000BDE8104022F4FD420B4322F07F02134365
:103AE000436004B000207047032303600020704748
:103AF000006800F0030070470B6810B583608C68A5
:103B00004B68C2682343CC680969234322F47F626F
:103B10000B4322F00F021343C360002010BD82B09C
:103B200014300144002301930191019B186802B0F5
:103B300070470000454B10B51B684FF4FA54B3FBB7
:103B4000F4F35A43002A4AD0436B13F0450F02F1B5
:103B5000FF32F7D0436B5C0703D504238363184619
:103B600010BD436B13F0010301D00123F6E7026996
:103B7000D2B2914236D140F2FF5219468263FFF72A
:103B8000CEFF334B0340002BE9D000282CDB420052
:103B90002DD484002DD4C1002DD402012ED4440193
:103BA0002FD4C10130D4020231D4440232D4810274
:103BB00033D4C20234D4440335D4810336D4C2038F
:103BC00037D4040438D4410439D482043AD410F0F0
:103BD000080F14BF4FF400034FF48033BFE74FF0DA
:103BE0000043BCE70123BAE74FF00073B7E7402377
:103BF000B5E78023B3E74FF48073B0E74FF4007369
:103C0000ADE74FF48063AAE74FF40063A7E74FF4F2
:103C10008053A4E74FF40053A1E74FF480439EE79D
:103C20004FF400439BE74FF4003398E74FF48023B1
:103C300095E74FF4002392E74FF480138FE74FF49A
:103C400000138CE74FF4800389E700BF0C000020CD
:103C500008E0FFFD0B6810B543624B688362CC68D7
:103C60008B68C26A23430C69496923430B4322F0E2
:103C7000F7021343C362002010BD30B587B0402364
:103C800003930023054601911024049301A94FF4E6
:103C9000806305930294FFF72FFF41F2883221469B
:103CA0002846FFF747FF07B030BD30B587B0402347
:103CB00003930023054601911124049301A94FF4B5
:103CC000806305930294FFF717FF41F28832214683
:103CD0002846FFF72FFF07B030BD30B587B040232F
:103CE00003930023054601911224049301A94FF484
:103CF000806305930294FFF7FFFE41F2883221466C
:103D00002846FFF717FF07B030BD30B587B0402316
:103D100003930023054601911824049301A94FF44D
:103D2000806305930294FFF7E7FE41F28832214653
:103D30002846FFF7FFFE07B030BD30B587B04023FF
:103D400003930023054601911924049301A94FF41C
:103D5000806305930294FFF7CFFE41F2883221463B
:103D60002846FFF7E7FE07B030BD000030B587B04A
:103D70000023054601930C244022049301A94FF42B
:103D80008063039205930294FFF7B6FE034A21462F
:103D90002846FFF7CFFE07B030BD00BF00E1F505B4
:103DA00030B587B0402303930023054607240493CE
:103DB00001A94FF48063019205930294FFF79CFEE2
:103DC00041F2883221462846FFF7B4FE07B030BDE5
:103DD00010B586B00023019302930393049301A9C5
:103DE0004FF4806305930446FFF786FE0B4B4FF4B8
:103DF000FA521B68B3FBF2F241F28833534313F1DA
:103E0000FF3308D3626B1206F9D540F2FF53A36368
:103E1000002006B010BD4FF00040FAE70C00002073
:103E200010B586B04FF4D573019308230293402355
:103E300003930023049301A94FF480630593044680
:103E4000FFF75AFE114B4FF4FA521B68B3FBF2F224
:103E500041F28833534313F1FF3314D3626B12F0F2
:103E6000450FF8D0626B12F0040204D04023A36324
:103E7000042006B010BD606B10F04000F9D0402364
:103E8000A3631046F5E74FF00040F2E70C00002076
:103E900030B587B0402303930023054601913724B2
:103EA000049301A94FF4806305930294FFF724FE65
:103EB00041F2883221462846FFF73CFE07B030BD6C
:103EC00010B586B02923029341F0004140230393AB
:103ED00041F48011002304460191049301A94FF499
:103EE00080630593FFF708FE2046FFF7C1FD06B08B
:103EF00010BD10B586B00023022204460193029241
:103F00000493C0224FF4806301A903920593FFF745
:103F1000F3FD2046FFF786FD06B010BD10B586B054
:103F200009230293C02303930023044601910493C1
:103F300001A94FF480630593FFF7DEFD2046FFF7EC
:103F400071FD06B010BD000030B587B0002303221C
:103F500001930292049340224FF480630D4601A91D
:103F6000039205930446FFF7C7FD204B4FF4FA5226
:103F70001B68B3FBF2F241F28833534313F1FF3372
:103F80002BD3626B12F0450FF8D0636B5A0703D541
:103F90000420A06307B030BD616B11F0010101D0B6
:103FA0000120F6E72369DBB2032B19D140F2FF535E
:103FB000A3632046FFF7B3FD10F4604303D1000C68
:103FC00028801846E6E743040CD410F4004F14BFD1
:103FD0004FF480504FF48030DCE74FF00040D9E7D9
:103FE0000120D7E74FF40050D4E700BF0C000020B9
:103FF00030B587B0402303930023054601910D247B
:10400000049301A94FF4806305930294FFF774FDB4
:1040100041F2883221462846FFF78CFD07B030BDBB
:10402000034B1A1803EB8003107A5B685B68184730
:1040300054000020064B1A5C42B901221A541A1887
:1040400003EB8003107A5B681B68184700207047F9
:104050005400002030B4054C251804EB800460683F
:104060008468287AA44630BC604700BF5400002012
:1040700030B4054C251804EB80046068C468287AC5
:10408000A44630BC604700BF54000020054B10B46C
:104090001C1803EB8003207A5B685DF8044B1B69F6
:1040A000184700BF5400002042884378007843EA54
:1040B000022340EA032070470B0A017043700B0C87
:1040C000090E8370C1707047024400F8011B9042D2
:1040D000FBD17047154BF0B500252A461C461E68DB
:1040E000A6B10768BE4212D15F688668B7420ED19A
:1040F0009F684669B7420AD1B1B904EB02129389AD
:10410000B3F5807F14BF00201020F0BD01250132DF
:10411000022A03F11003E2D10DB10020F0BD022903
:104120000CBF00201220F0BD1020F0BD3000002098
:104130001C4AF0B50568002316461468AC4207D146
:1041400057688468A74203D197684469A7421DD085
:104150000133022B02F11002EFD1336813B133693E
:10416000EBB901231C013219355184684069906014
:1041700000205460908179B906EB031292890132D4
:1041800092B206EB0316581CB281F0BD0029F3D0A1
:1041900006EB0312928912B94FF48072F1E7002006
:1041A000F0BD00BF30000020013801280ED8094AB8
:1041B0000301D118898921F4807080B208B1481EAA
:1041C00080B2D118888118B9D0507047022070474A
:1041D000002070473000002083690239023B994279
:1041E0003DBF4389C06A01FB030000207047C36ADA
:1041F00002680433490A5289B1FBF2F1186830B100
:10420000814202D3091A0833F8E758680844704716
:10421000026810B552B111460B4611F8014B202C23
:104220000CD93A2CF8D1511C8B4202D04FF0FF3000
:1042300010BD1278302AF9D101330360002010BD7F
:1042400001380A4411F8013B00F8013F9142F9D1CD
:104250007047CA7E8B7E032843EA022301BF487D54
:104260000A7D42EA002243EA024318467047C2F33D
:1042700007238A76CB760378032B01BF120C0A75CD
:10428000120A4A757047F8B5056B00F13407044609
:1042900001232A4639464078FFF7EAFEA0B9636A4F
:1042A000E269E070EB1A934201D30020F8BDA678D2
:1042B000012EFAD9E36960781D442A460123394664
:1042C000FFF7D6FE013EF3E70120F8BDC3780BB13E
:1042D000FFF7D9BF18467047F8B50446FFF7F6FF59
:1042E0000546002842D12378032B37D12779012FA7
:1042F00034D104F1340601464FF400723046FFF722
:10430000E3FE552384F83232AA2384F83332522351
:104310004122722184F8343084F83530612384F8E6
:10432000363084F8372084F81A2284F81B3284F857
:10433000181284F8191204F507706169FFF7BCFEC2
:10434000216904F50870FFF7B7FE226A6078013230
:1043500022633B463146FFF78BFE25710022114652
:104360006078FFF793FE003018BF0120F8BD036BA3
:104370008B4270B506460D4612D0FFF7A7FF0446E4
:1043800060B92A46012306F134017078FFF762FE16
:1043900000281CBF4FF0FF3501243563204670BD57
:1043A0000024FBE7002310B5C3704FF0FF33036315
:1043B0000446FFF7DCFF30BB94F8332294F8323226
:1043C00043EA02234AF6552293421ED194F8343030
:1043D000E92B05D0636B104A03F0FF13934216D10B
:1043E00004F16A00FFF760FE0C4B20F07F4098421A
:1043F0000FD004F18600FFF757FE094B984214BF17
:104400000220002010BD042010BD032010BD02209A
:1044100010BD002010BD00BFEB00900046415400CD
:10442000464154332DE9F043002385B00B600F461D
:104430001546FFF7EDFE061E3CDBA34B53F8264066
:10444000002C39D0E06801F0B2F900283AD10F20F1
:1044500005B0BDE8F0836078FFF7E2FDC10737D40F
:1044600065B310F00400F3D00A20F1E70320013512
:10447000042D4FD1042805D10120E9E70428FBD001
:10448000012801D90D20E3E700264DE00327AAE02B
:10449000B9F1000FF6D0022F4FEA410018BF4018C3
:1044A000434418BF01F00101A3620CBF014601EBB8
:1044B0005001B4E00B20CBE70C20C9E72846C7E742
:1044C0000320C5E73C60237805F0FE05002BC2D130
:1044D0000023F0B223706070FFF7ACFDC207EFD489
:1044E0000DB14307C0D400212046FFF75BFF02282F
:1044F000C4D104F5FD75002115F8040C10B128464F
:10450000FFF7D2FD4DF821000131042905F1100516
:10451000F2D100255DF82560002EA7D03146204657
:10452000FFF740FF0128A2D894F8402094F83F30CC
:1045300043EA0223B3F5007FA4D194F84B3094F8FA
:104540004A5055EA032504D104F15800FFF7ACFDA9
:10455000054694F84480E56108F1FF33012B84F8A7
:1045600002808FD894F84170BBB205FB08F86381D4
:10457000002B87D07B1E3B4284D194F8463094F8C0
:10458000459049EA032919F00F0FA4F808907FF429
:1045900079AF94F8481094F8470050EA012003D10D
:1045A00004F15400FFF780FD94F8432094F8423062
:1045B00053EA02233FF466AF03EB191242449042E0
:1045C000FFF460AF811AB1FBF7F100293FF45AAF55
:1045D0004FF6F57081423FF659AF40F6F577B94294
:1045E0008CBF02270127023133443244032FA161DB
:1045F00026626362E2627FF44BAF94F85F2094F826
:104600005E3053EA02237FF43DAFB9F1000F7FF42F
:1046100039AF04F16000FFF747FDA062890001F2A5
:10462000FF11B5EB512FFFF42DAF4FF0FF33636156
:104630002361032F4FF0800323712FD194F865205D
:1046400094F8643043EA0223012B27D1711C2046E1
:10465000FFF78DFE10BB94F8332294F832322071AC
:1046600043EA02234AF65522934217D104F134005B
:10467000FFF71AFD154B984210D104F50670FFF7AD
:1046800013FD134B984209D104F50770FFF70CFD99
:10469000606104F50870FFF707FD20610D4A27707F
:1046A000138801339BB21380E3800B4B1A6894424A
:1046B00004BF00221A601A6994424FF000007FF490
:1046C000C7AE1861C4E600BF2C0000205252614101
:1046D00072724161500000203000002001292DE954
:1046E000F04705460C46174672D9836999426FD246
:1046F0000378022B3FD0032B50D0012B68D101EB64
:104700005108416A01EB5821FFF731FE064638BBDC
:1047100005F1340908F1010AC8F3080814F001048E
:104720001FBF19F8083003F00F023B0103F0F0033C
:1047300014BF1343FBB209F80830696A0123EB7018
:1047400001EB5A212846FFF712FE064640B9CAF38C
:10475000080A44B1C7F3071709F80A700123EB7080
:104760003046BDE8F08719F80A30C7F3032723F075
:104770000F031F43F0E7416A01EB1421FFF7F7FD38
:1047800006460028ECD1640005F1340304F4FF74FC
:104790001A191F55C7F307275770DFE7416A01EB66
:1047A000D411FFF7E4FD06460028D9D1A40005F195
:1047B000340304F4FE741C442046FFF775FC27F014
:1047C000704700F0704139432046FFF775FCC5E79C
:1047D0000226C5E70129F8B505460C4652D983697A
:1047E00099424FD20378022B29D0032B38D0012BCA
:1047F00048D101EB5106416A01EB5621FFF7B7FDA5
:1048000010B14FF0FF30F8BD771C696AC6F3080697
:104810002E4401EB5721284696F83460FFF7A7FD98
:104820000028EED1C7F308073D44E30795F83400AC
:1048300046EA00204CBF0009C0F30B00F8BD416AF6
:1048400001EB1421FFF793FD0028DAD16400343521
:1048500004F4FF742B19285D5B7840EA0320F8BD4F
:10486000416A01EBD411FFF782FD0028C9D1A400F1
:1048700005F1340004F4FE742044FFF715FC20F029
:104880007040F8BD0120F8BD2DE9F0418046056873
:104890000F4671B92E69F6B1AB699E4228BF012659
:1048A0003446AB6901349C4218D3012E15D800243C
:1048B00009E02846FFF78EFF0128044637D9431C3C
:1048C00004D14FF0FF342046BDE8F081AB69984237
:1048D000F9D33E46E4E70126E2E702242146D8F870
:1048E0000000FFF777FF30B1012820D00130E8D079
:1048F000B442D6D1DBE74FF0FF3221462846FFF71E
:10490000EDFE90B957B9AA696B692C61023A9342DE
:104910000FD92B7943F001032B71D4E72246394696
:104920002846FFF7DBFE0028EDD00128C9D001247E
:10493000C9E7013B6B61ECE7F8B50D46012D074671
:10494000114601D80220F8BD0468A3699D42F9D23E
:104950002AB14FF0FF322046FFF7C0FE08BB2946C0
:104960003868FFF737FF064608B90020F8BD012870
:10497000E8D0431C14D0002229462046FFF7AEFEA3
:1049800078B9A2696369911E8B4205D201336361D4
:10499000237943F00103237196423546DFD3E4E7E0
:1049A0000120F8BD40B1A1F10B03012B04D90F295F
:1049B00002D0C06800F004BF7047826838B5002399
:1049C00005460468436192B92378022B01D9A36A92
:1049D00073B923890BB9022038BDA36AEB61EB6977
:1049E000AA61002BF7D034342C62002038BD134666
:1049F00061891A4661B911462868FFF7EBFE431C2E
:104A000002460BD00128E6D9A3699842F3D3E2E726
:104A100019462046FFF7E0FBE861E0E7012038BDDA
:104A2000C3692DE9F04705460F46ABB1426902F173
:104A30002008B8F5001F0FD2C8F308090468B9F1BF
:104A4000000F4FD181690133C36141B92389B3EBB1
:104A5000581F47D80023EB610420BDE8F087638925
:104A6000013B13EA58233DD12046FFF7B3FE01284E
:104A7000064602D80220BDE8F087421C02D1012080
:104A8000BDE8F087A369984226D3002FE2D0A96938
:104A90002846FFF7F9FE0646002837D00128E9D05E
:104AA000431CECD02046FFF711FC07460028E6D156
:104AB00001464FF4007204F13400FFF705FB314664
:104AC0002046FFF789FB4FF0010A206363899F426C
:104AD00010D3236BDF1B2763AE6131462046FFF7FF
:104AE0007BFBE86134344C44C5F814802C62002010
:104AF000BDE8F08784F803A02046FFF7C4FB002838
:104B0000BDD1236B013301372363DFE70720BDE805
:104B1000F08700002DE9F843076804460B782F2B37
:104B20000D4601F10101F9D05C2BF7D00023A36001
:104B30002B781F2B59D9DFF85C8104F124060B2256
:104B400020213046FFF7C0FA002205F1FF3E114652
:104B500008201EF8013F202B01F101010BD92F2B5A
:104B60004BD16818411B10F801EBBEF12F0FF9D0A3
:104B7000BEF15C0FF6D00D44002A54D094F82420E6
:104B8000D4F80090E52A04BF052284F82420212BC4
:104B900034BF0423002384F82F302046FFF70DFF95
:104BA000002845D1E1694846FFF7E1FB00283FD1E5
:104BB000236A1A78002A46D0DA7A02F03F02A271FC
:104BC000DA7A11070CD403F10B0E314613F8012BDE
:104BD00011F801CB9E45A2EB0C0227D0002AF5D09C
:104BE00000212046FFF71CFFDAE7802384F82F30EE
:104BF0002046BDE8F843FFF7E0BE5C2BB1D02E2B7A
:104C000036D090420FD913F0800F18BF803BDFF8E9
:104C1000889018BF18F8033019F801CFBCF1000FC5
:104C20002BD06345F8D10620BDE8F883002AD7D100
:104C300094F82F3048B1042829D113F0040F08BF8D
:104C40000520BDE8F8830420F2E75A071FD4A379B2
:104C5000DB060AD563693878C3F3080307F134012A
:104C60001944FFF7F6FAA06067E70520BDE8F8836E
:104C70000B28D8D008220B206BE7A3F1610CBCF104
:104C8000190F01D8203BDBB2B354013261E7BDE814
:104C9000F88300BFB07F00082F80000870B505467C
:104CA0000668FFF78AFE044628BBE9693046FFF72D
:104CB0005EFB0446F8B92B6A1B78E52B14D1E96931
:104CC0003046FFF754FB044660B901462022286AAB
:104CD000FFF7FAF90B2205F12401286AFFF7B0FA71
:104CE0000123F370204670BD002BE8D00121284637
:104CF000FFF796FED7E7042C08BF0724F2E770B54C
:104D00000E46054618B900233360092070BD0368BC
:104D1000002BF8D01A78002AF5D0D98882889142E1
:104D2000F1D15878FFF77CF910F00104EBD12B6832
:104D300033602B682BB1D86800F039FD08B12046EC
:104D400070BD0F2070BD0000F0B585B01646019013
:104D500004A8009140F8041DFFF75AFA071E35DB3E
:104D60001C4D55F82740A4B11B4BE0681A689442CB
:104D700004BF00221A601A69944204BF00221A611B
:104D800000F010FD18B90224204605B0F0BD002344
:104D90002370019989B9019C45F82740002CF3D074
:104DA000012E15D101A900226846FFF73BFB0446FE
:104DB00001460198FFF7F6FDE6E7002301F80C3BFA
:104DC000F8B200F0E0FC0028DDD0E4E70B24DBE7DC
:104DD0000024D9E72C000020300000202DE9F04706
:104DE00090B0904601910446002800F0D28002F075
:104DF0003F052A4603A901A8FFF714FB074638BB65
:104E000010AE039B46F8303D01993046FFF782FE15
:104E100058B99DF93F30002B1EDB15F03E0F14BF33
:104E2000012100213046FFF755F918F01C0F73D00F
:104E3000A0B1042809D1734B1A68002A00F0DE8063
:104E40001B69002B00F0DA80122045F0080570B1D4
:104E500000232360074692E00620E6E79DF816301F
:104E600013F0110F63D118F0040F40F0C180280730
:104E70003CD502F02DFC024601460C980E30FFF79F
:104E80001BF90C9811461630FFF716F90C9BDDF84C
:104E90000C902022DA72DDF830A099F8000051461B
:104EA000FFF7D7F90022514680464846FFF7DFF961
:104EB0000C9B00221A775A779A77DA77039B0121A5
:104EC000D970B8F1000F11D041463046D3F8309078
:104ED000FFF732FD0028BBD149460398FFF747FA98
:104EE000039A08F1FF3313610028B1D1039B28070F
:104EF0001B6B636248BF45F0400515F0FE0F0C9B2D
:104F0000A36214BF012100213046FFF711F920618F
:104F1000002840D102209BE7002899D19DF8163047
:104F2000DA0667D418F0020FE0D0DB07DED50720E1
:104F30008EE72068FFF74EFC0128014627D9421C66
:104F400050425041A5EB080500284DD0E1610028F2
:104F50007FF47EAFC5F308038BB1DDF80C804046CB
:104F6000FFF73AF90028D5D000EB55222262012341
:104F7000314698F80100FFF76DF800283CD139461A
:104F80000398FFF70FFD384610B0BDE8F087022008
:104F9000D8E70927F7E7039EDDF8308030784146EF
:104FA000FFF757F9A06008F11C00FFF77DF8F388C0
:104FB0002660002104F13006E060A380E1622575DF
:104FC00061752162A1614FF400723046FFF77CF8F1
:104FD000AB06D4D5E568002DD1D0039BA168B3F80A
:104FE0000A80A5614FEA4828A845A2D30020ADE772
:104FF00008202DE704202BE7012029E73046FFF7A2
:105000004DFE22E7300000202DE9F04F9B4685B091
:1050100000238946CBF8003003A904461746FFF762
:105020006EFE054608B9657D0DB1294633E0237D46
:105030009A0708D407210398FFF7B4FC07252846F0
:1050400005B0BDE8F08FA369FB4228BFDF4304F140
:1050500030030093D7B1A169C1F30803002B40F0DE
:105060009380039B5B89013B13EA5123019325D174
:1050700031B9A068A8B901462046FFF705FC04E055
:10508000E36A63B12046FFF7B2F850B9237D43F0DD
:105090004003237500210398FFF784FCCFE7E16903
:1050A000EAE7012802D102256575BEE7431C01D15C
:1050B0000125F9E7A368E06103B9A06094F9143011
:1050C000002B0CDA0398226A009940780123FEF73E
:1050D000CFFF0028ECD1237D03F07F032375DDF89B
:1050E0000CA0E1695046FFF777F820B902256575F5
:1050F00029465046D0E7019B7E0A03EB000831D0D9
:10510000019ABAF80A309AF8010032449A4284BFF0
:10511000019A9E1A334642464946FEF7A9FF0028E7
:10512000C6D1216AA1EB08018E420AD94FF4007260
:1051300009EB41210098FFF783F8237D03F07F03FB
:1051400023757602A369E2683344A3619A422CBFB7
:10515000E260E360DBF800303344B144CBF8003068
:10516000BF1B77E7236A98450CD0A269E3689A428F
:1051700008D20123424600999AF80100FEF76AFF1F
:10518000002895D1C4F82080A069009BC0F30800D6
:10519000C0F50076BE4228BF3E4618443246494616
:1051A000FFF74EF8237D63F07F032375CAE70A29D2
:1051B00073B504460E4602D10D21FFF7F8FF636870
:1051C000002B14DB5D1C23443C2D1E730BDD01AB57
:1051D0002A4604F10C012068FFF716FF019B5D1BB6
:1051E00018BF4FF0FF35A36865600133A36002B0BC
:1051F00070BD4268002A13B5044603DA4FF0FF3051
:1052000002B010BD00F10C0101AB0068FFF7FCFE1D
:105210000028F3D16268019B9A42EFD1A068EFE7C2
:10522000F7B501A90446FFF76AFD0546002842D1FB
:10523000237D5A063FD51B0614D50198226A407873
:10524000012304F13001FEF713FF38B10121019869
:10525000FFF7A8FB0125284603B0F0BD237D03F02E
:105260007F03237502F034FA616A07460198FFF75D
:105270007EF80546F8B9A66AF37A43F02003F37284
:10528000A26820683146FEF7F2FFE16806F11C00D3
:10529000FEF712FF394606F11600FEF70DFF0198E2
:1052A000B5740123F574C370FFF716F8237D23F05E
:1052B00040030546237529460198FFF773FBCAE7AB
:1052C00037B50546FFF7ACFF044678B901A9284673
:1052D000FFF715FD044648B92869FEF765FF044647
:1052E00000B9286000210198FFF75CFB204603B05D
:1052F00030BD2DE9F74F0E4601A90546FFF7FFFC2B
:10530000044608B96C7D14B12146019853E0EB6A5C
:10531000002B7ED0721C36D1D5F80880D3F800B0AF
:105320001F1D0226B8F1000F25D0C1464FF0000A1C
:1053300049462868FFF74EFA01280AF1010A04D805
:1053400002246C75E0E78046EFE7431C01D101249D
:10535000F7E709F1010398428146E9D00236B345E7
:1053600021BF3B4643F808ABC7F804801F46019BAA
:105370009B699842E7D3EB6A5E451E6000F2E380CA
:1053800000233B60C0E7E868864228BF0646AE615E
:10539000002EB9D006F1FF3841462846FEF727FF18
:1053A000019FE86101463846FEF716FF48B902241E
:1053B0006C7521463846FFF7F5FA204603B0BDE884
:1053C000F08FC6F30806002E9ED07E892A6A013E21
:1053D00006EA58260644964296D095F91430002BDA
:1053E00005F130080ADA012341467878FEF740FEDD
:1053F0000028ACD12B7D03F07F032B75019801238E
:10540000324641464078FEF725FE00289FD12E62A5
:105410007AE7EB689E4204D92A7D12F0020F08BF9A
:105420001E460022AB69AA61002E33D1374609E03F
:105430000027EB68AE699E4281BF2B7DEE6043F092
:1054400040032B75C6F30806002E3FF45DAF2A6AB1
:10545000BA423FF459AF95F91430002B05F13006EC
:105460000CDA0198012331464078FEF701FE00284E
:105470007FF46DAF2B7D03F07F032B750198012323
:105480003A4631464078FEF7E5FD00287FF45FAFED
:105490002F6239E7019A57897F0213B3013B721ECD
:1054A000B3FBF7F1B2FBF7F28A421AD37A42134008
:1054B000E969AB61F61A0029BAD0BE4220D8AB69BF
:1054C0003344AB61C6F30803002BB1D0019A1046F8
:1054D000FEF782FE002833D102246C752146104667
:1054E00069E7A96851B92846FFF7CEF901280146B6
:1054F0003FF426AF01303FF42AAFA960E961DAE753
:10550000AB693B44AB612B7D9A07A6EB070606D53A
:105510002846FFF7B9F9014628B90646CFE72868BB
:10552000FFF758F901464B1C3FF411AF01297FF6F4
:1055300007AF019B9B699942BFF402AFE961BCE7E9
:1055400000EB562775E71124DEE60EB42DE9F0478F
:105550009DB025AA002152F8043B09900A910B91B5
:10556000009201AE1978002900F0E080252904D0CE
:105570005D1C09A8FFF71BFE5DE05978302929D191
:105580009978DD1C012200270A20A1F13003092BA4
:1055900029D901F0DF034C2B02BF297842F0040225
:1055A0000135002900F0C280A1F16103192B9ABFD7
:1055B000A1F12003DBB20B464F2B3ED019D8432B71
:1055C00000F09680442B00F09B80422BD1D14FF00D
:1055D000020E34E02D2919BF9D1C0022DD1C997894
:1055E00008BF0222CFE700FB0717303F15F8011B69
:1055F000CBE7552B00F08480582B7ED0532BB8D1AD
:10560000009BD3F80080191D00914346A3EB0804CA
:1056100013F8011B0029F9D1930704D42346BB4298
:1056200004F1010455D308F1FF3818F8011F0029CF
:1056300054D1A74256D82B4694E74FF0080E12F0EB
:10564000040F00985FD0041D00680094442B04D11F
:105650000028BCBF404242F0080278290CBF4FF03E
:1056600027084FF007080021B0FBFEFC0EFB1C04CE
:10567000E3B2092C84BF4344DBB2303360464C1C98
:105680007354BCF1000F02D0202C42D11F2110070F
:1056900005D51CAB1C442D2304F86C3C8C1C12F06B
:1056A000010F14BF4FF030094FF020099307A046B7
:1056B00036D5013C09A8315DFFF779FD002CF8D102
:1056C0004745B8D9494609A8FFF771FD08F1010817
:1056D000F6E7202109A8FFF76AFD9FE709A8FFF771
:1056E00066FDA2E7202109A8FFF761FD0134A0E7CC
:1056F000009B1A1D009219783BE74FF0100E9EE7B1
:105700004FF00A0E9BE7442B00F10403009300685E
:105710009DE72146A8E7494609A8FFF748FDD0467E
:10572000B84508F1010AF6D3D046C2E709A8FFF749
:1057300060FD1DB0BDE8F04703B0704730B50F4BBA
:105740005D7A05F0FF04B5B95D7A5C555D7A03EBCF
:1057500085056860587A184402725A7AD2B2501C91
:10576000C0B258723A2330324B702F230A708B70BC
:10577000CC70204630BD012030BD00BF5400002059
:105780000022FFF7DBBF13B502A800230C4640F848
:10579000043D012100F04AF82060003018BF0120CC
:1057A00002B010BD08B500F011F9012008BD08B520
:1057B0004FF47A7100F04EF8B0FA80F0400908BD5D
:1057C00000F070B808B501F093F8002008BD08B5E6
:1057D00001F02EFB10F1FF3018BF012008BDEFF3E0
:1057E00005830BB101F0CEB801F0C6B830B5B0F901
:1057F0000840028A0B4690E8220085B0842C14BF32
:105800000334002403A801900094284600F0A0FF70
:1058100001280CBF0398002005B030BD08B5002852
:1058200008BF012001F0C0F9002008BD012910B512
:1058300008460CD10322002100F04CFC044620B1A4
:1058400000231A46194600F067FC204610BD0024CC
:10585000FBE7000013B500240A460194E8B1EFF31A
:105860000583A3B101AA214600F098FE012802D0C9
:10587000FF2002B010BD019B3BB1094B4FF080529D
:105880001A60BFF34F8FBFF36F8F0020F1E7194607
:1058900000F0C0FD0128EBD1F7E78020E9E700BF69
:1058A00004ED00E013B500240194EFF3058393B1F8
:1058B00001A900F05BFD012813D1019B13B9002061
:1058C00002B010BD084B4FF080521A60BFF34F8FEB
:1058D000BFF36F8FF3E71A46194600F01DFC01284D
:1058E000EDD0FF20ECE700BF04ED00E0002203C88C
:1058F00000F0F0BB1FB5002401910394A24208BF41
:105900000122EFF30583ABB1234603AA01A900F0FE
:10591000CBFC012802D0FF2004B010BD039B3BB19B
:10592000074B4FF080521A60BFF34F8FBFF36F8F5A
:105930000020F1E701A900F0EFFB0128EBD1F7E728
:1059400004ED00E0F0B585B0002604461746084691
:105950000391029601AD11B98023019317E00096DF
:10596000EFF30583D3B16A4602A900F017FE0128C0
:1059700004BF10230193009B18BF01963BB10D4B50
:105980004FF080521A60BFF34F8FBFF36F8F95E8CF
:10599000070084E80700204605B0F0BD02A900F02A
:1059A00039FD012801D11023D7E7002F0CBF0023B8
:1059B0004023D2E704ED00E010B5EFF305841CB9F5
:1059C00000F050FE204610BD822010BDFFF7F4BF4E
:1059D00000F1080343604FF0FF32C360036100230E
:1059E00082600360704700230361704743684B6027
:1059F0009A688A609A685160996003680861013307
:105A0000036070470A68531C30B50AD103695A68AD
:105A10004A6091608B6059600368086101330360DC
:105A200030BD00F108035C682568AA42EFD3234625
:105A3000F9E74168826803698A6082685160596841
:105A4000884208BF5A600022026118680138186055
:105A5000704700000A4B1B68013308D04FF0500319
:105A600083F31188BFF36F8FBFF34F8FFEE74FF0C3
:105A7000500383F31188BFF36F8FBFF34F8FFEE79F
:105A80000400002006480068006880F3088862B6B9
:105A900061B6BFF34F8FBFF36F8F00DF00BF000011
:105AA00008ED00E0DFF80C00016841F470010160CE
:105AB0007047000088ED00E04FF0807340F8043C30
:105AC000074B40F80C3C21F001016FF0020340F855
:105AD000081C40F8202C40F8243C4438704700BF94
